:020000040800F2
:1000000000000320DD0200086126000865260008C4
:10001000692600086D26000871260008000000000F
:10002000000000000000000000000000752600082D
:1000300079260008000000007D26000881260008BF
:10004000E1030008E1030008E1030008E103000800
:10005000E1030008E1030008E1030008E1030008F0
:10006000E1030008E1030008E1030008E1030008E0
:10007000E1030008E1030008E1030008E1030008D0
:10008000E1030008E1030008E1030008E1030008C0
:10009000E1030008E1030008E1030008E1030008B0
:1000A000E1030008E1030008E1030008E1030008A0
:1000B000E1030008E1030008E1030008E103000890
:1000C000E1030008E1030008E1030008E103000880
:1000D000E103000889260008E1030008E1030008A5
:1000E000E1030008E1030008E1030008E103000860
:1000F000E1030008E1030008E1030008E103000850
:10010000E1030008E1030008E1030008E10300083F
:10011000E1030008E1030008E1030008E10300082F
:10012000E1030008E1030008E1030008E10300081F
:10013000E1030008E1030008E1030008E10300080F
:10014000E1030008E1030008E1030008E1030008FF
:10015000E1030008E1030008E1030008E1030008EF
:10016000E1030008E1030008E1030008E1030008DF
:10017000E1030008E1030008E103000800000000BB
:10018000E1030008E1030008E1030008E1030008BF
:10019000E1030008E1030008E1030008E1030008AF
:1001A000E1030008E1030008E103000800B583B0A3
:1001B00001F0FAFE384B394A1360394A1360394965
:1001C0000CE00A684B6801F10C04886803E01168D0
:1001D0001960043304329842F9D82146324B9942CF
:1001E000EFD32E4B1A68314B9A4204D12C4B1A682C
:1001F0002F4B9A4200D0FEE7274B2E4A13602E4A1F
:1002000013602E4B0AE0194651F8082B5B6802E098
:100210000020106004329A42FAD30B46284A9342D7
:10022000F1D3244B1B6813B9234B1B6803B1FEE7C2
:1002300001F0FCFF694601A801F054FE214C224B5D
:100240001C1BA410002504E01E4B53F825309847D2
:100250000135AC42F8DC1D4C1D4B1C1BA4100025C5
:1002600004E01A4B53F8253098470135AC42F8DCCE
:100270000099019802F03EF80546164C164B1C1BDF
:10028000A41004E0013C134B53F824309847002C91
:10029000F8DC284601F0F8FDBABADECA00000020FA
:1002A0007C000020E4030008FC03000878563412A8
:1002B0003254769880000020D8010020FC0300080A
:1002C0000C0400080C0400080C0400080C040008CE
:1002D0000C0400080C0400080C04000808B5FFF723
:1002E00065FF00BF00BEFEE71EF0040F0CBFEFF37A
:1002F0000880EFF309807146364A10472DE9F04136
:1003000082B004468846084B5E6B9F6B9D6A074827
:1003100001F0FAFDCDF800803B46324629462046E2
:1003200001F04EFE00BEFEE700ED00E0683200087E
:1003300000BEFEE71EF0040F0CBFEFF30880EFF3E2
:1003400009807146244A10472DE9F04182B00446E5
:100350008846084B5E6B9F6B9D6A074801F0D4FD91
:10036000CDF800803B4632462946204601F028FE63
:1003700000BEFEE700ED00E0783200081EF0040F3A
:100380000CBFEFF30880EFF309807146134A104762
:100390002DE9F04182B004468846084B5E6B9F6BA6
:1003A0009D6A074801F0B0FDCDF800803B4632461B
:1003B0002946204601F004FE00BEFEE700ED00E005
:1003C0008432000800BEFEE700BEFEE700BEFEE786
:1003D00070470000FD02000849030008910300086F
:0403E00000BEFEE776
:1003E400E03200080000002080000020E032000815
:1003F400000000100000001080000020DC0100203C
:080404000000001000000010D0
:1004100010B5044600F056FE064BA3FB00308009E1
:1004200000F0B6F8002221464FF0FF3000F058F8F7
:10043000002010BDD34D621008B50B4B1A6842F472
:1004400000721A601A6842F480621A601A6842F4F4
:1004500080721A60032000F025F80F20FFF7D8FF04
:1004600002F02CF8002008BD003C0240024A13684C
:1004700001331360704700BF18010020014B18685A
:10048000704700BF1801002010B582B00190FFF73F
:10049000F5FF0446FFF7F2FF001B019B9842F9D3DA
:1004A00002B010BD10B50446C31E042B03D9A4210D
:1004B000094801F01FFD094AD36823F4E0631B04D7
:1004C0001B0C240204F4E064234343F0BF6343F4B1
:1004D0000033D36010BD00BF9C2F000800ED00E08A
:1004E00070B504460E4615460F2A03D9BC211A489A
:1004F00001F000FD0F2E03D9BD21174801F0FAFCD1
:10050000164BDA68C2F30222C2F10701042928BFA0
:100510000421131D062B01D9033A00E00022012318
:1005200003FA01F101393140914003FA02F2013A34
:100530002A400A43002C06DA04F00F041201D2B25A
:10054000074B1A5570BD1201D2B204F1604404F594
:10055000614484F8002370BD9C2F000800ED00E08A
:1005600014ED00E010B5041E03DAD021064801F0B6
:10057000C1FC620904F01F04012303FA04F4034BD5
:1005800043F8224010BD00BF9C2F000800E100E0AE
:100590000138B0F1807F0AD2064B5860F021064A3C
:1005A00082F823100020986007221A60704701200B
:1005B000704700BF10E000E000ED00E010B5044619
:1005C000042805D020B140F2B311084801F092FC94
:1005D000042C05D1064A136843F00403136010BDD0
:1005E000034A136823F00403136010BD9C2F000816
:1005F00010E000E02DE9F04782B080460F46B24B94
:1006000098422BD003F58063984227D003F580638E
:10061000984223D003F5806398421FD003F580638E
:1006200098421BD003F58063984217D003F580638E
:10063000984213D003F5806398420FD003F580638E
:1006400098420BD003F58063984207D003F580638E
:10065000984203D0C5219D4801F04CFC3B881BB952
:10066000C6219A4801F046FC7B68012B22D9112B48
:1006700020D0022B1ED0122B1CD0954A934219D0A9
:1006800002F58012934215D002F58012934211D0E8
:10069000A2F5F81293420DD002F58012934209D0D0
:1006A00002F58012934205D0032B03D0C72187485F
:1006B00001F020FCBB68022B03D9C821834801F05C
:1006C00019FC002540E10124AC403E682640B442BC
:1006D00040F039817B68022B01D0122B58D13B6945
:1006E000002B45D0092B43D0002B41D0002B3FD00D
:1006F000F3B3EBB3012B3BD03AD0022B38D037D039
:1007000036D0032B34D0042B32D031D030D0052B4F
:100710002ED02DD0092B2BD0062B29D0092B27D05A
:10072000072B25D024D023D0082B21D020D01FD0B8
:10073000092B1DD01CD00A2B1AD019D00B2B17D087
:100740000C2B15D014D00D2B12D00F2B10D0052B45
:100750000ED00DD00CD0082B0AD009D00C2B07D00E
:10076000062B05D00E2B03D0D921584801F0C2FB2F
:10077000EA08083258F8220005F0070399000F2311
:100780008B4020EA03003B698B40034348F822304A
:10079000D8F800304FEA450A4FF0030909FA0AF980
:1007A0006FEA090903EA09027B6803F0030303FA0D
:1007B0000AF31343C8F800307B685A1E012A03D994
:1007C000112B01D0122B1BD1FB68032B03D9EC2179
:1007D0003E4801F08FFBD8F8083009EA0302FB68B5
:1007E00003FA0AF31343C8F80830D8F8043023EAB0
:1007F00004047B68C3F30013AB401C43C8F80440F7
:10080000D8F80C3009EA0309BB6803FA0AF349EA8D
:100810000303C8F80C307B6813F0805F00F093800E
:10082000002301932B4B5A6C42F480425A645B6C58
:1008300003F480430193019BA9088A1C264B53F8BB
:10084000220005F003039B000F229A4020EA0200D9
:100850001D4A904525D002F58062904523D002F5CF
:100860008062904521D002F5806290451FD002F54C
:10087000806290451DD002F5806290451BD002F544
:100880008062904519D002F58062904517D002F53C
:100890008062904515D002F5806290451ED10922F4
:1008A0001DE000221BE0012219E0022217E00322D2
:1008B00015E0042213E0052211E006220FE00722D2
:1008C0000DE008220BE000BF00000240D02F00081E
:1008D0000000111000380240003801400A2202FADC
:1008E00003F3034302311B4A42F821301A4B1A68C2
:1008F000F34302EA0301786810F4803F01D046EA2E
:100900000201154A1160526803EA0201786810F486
:10091000003F01D046EA02010F4A5160926803EAA3
:100920000201786810F4801F01D046EA02010A4AE9
:100930009160D2681340796811F4001F01D046EA33
:100940000203054AD36001350F2D7FF6BCAE02B01D
:10095000BDE8F08700380140003C014070B5064614
:1009600015460C4621B940F2B111084801F0C2FA0F
:10097000012D04D94FF4D971044801F0BBFA0DB12F
:10098000B46170BD2404B46170BD00BFD02F0008F5
:1009900038B504460D4621B94FF4E471034801F01F
:1009A000A9FA61696940616138BD00BFD02F0008B4
:1009B00030B583B0044603680F2B03D9F6219C4859
:1009C00001F098FA236813F0010F45D06368012BFA
:1009D00005D9052B03D0FB21954801F08BFA954BE7
:1009E0009B6803F00C03042B0AD0924B9B6803F026
:1009F0000C03082B0CD18F4B5B6813F4800F07D0CE
:100A00008C4B1B6813F4003F26D0636823BBCCE1FA
:100A10002279894B1A7063687BB1FFF72FFD054679
:100A200005E0FFF72BFD401B642800F2C081814BDD
:100A30001B6813F4003FF4D00EE0FFF71FFD0546DE
:100A400005E0FFF71BFD401B642800F2B281794BE3
:100A50001B6813F4003FF4D1236813F0020F6AD02F
:100A6000E368012B04D940F22D11714801F042FADC
:100A700023691F2B04D94FF497716D4801F03AFA9E
:100A80006C4B9B6813F00C0F0AD06A4B9B6803F009
:100A90000C03082B1BD1674B5B6813F4800F16D136
:100AA000644B1B6813F0020F03D0E368012B40F086
:100AB00082816048036823F0F8012369F82292FAE2
:100AC000A2F2B2FA82F293400B43036033E0E36890
:100AD000FBB10122594B1A60FFF7D0FC054605E037
:100AE000FFF7CCFC401B022800F26781514B1B68CA
:100AF00013F0020FF4D04F48036823F0F801236984
:100B0000F82292FAA2F2B2FA82F293400B43036007
:100B100011E00022494B1A60FFF7B0FC054605E0E2
:100B2000FFF7ACFC401B022800F24981414B1B68D7
:100B300013F0020FF4D1236813F0080F2ED063696D
:100B4000012B04D94FF4B771394801F0D3F9636927
:100B500093B101223A4B1A60FFF790FC054605E07D
:100B6000FFF78CFC401B022800F22B81314B5B6F9E
:100B700013F0020FF4D011E00022314B1A60FFF79E
:100B80007DFC054605E0FFF779FC401B022800F2DA
:100B90001A81284B5B6F13F0020FF4D1236813F016
:100BA000040F60D0A368012B06D9052B04D04FF4A5
:100BB000CC711F4801F09EF9002301931D4B1A6C64
:100BC00042F080521A641B6C03F080530193019B26
:100BD0001C4A136843F480731360FFF74FFC05460B
:100BE00005E0FFF74BFC401B022800F2EE80154B9E
:100BF0001B6813F4807FF4D0227A134B1A70A36819
:100C00008BB1FFF73BFC054607E0FFF737FC401BC5
:100C100041F28833984200F2DA80064B1B6F13F0E2
:100C2000020FF2D01FE0FFF729FC054616E000BFD7
:100C300010300008003802400238024000004742ED
:100C4000800E47420070004070380240FFF716FCEB
:100C5000401B41F28833984200F2BB80634B1B6F0C
:100C600013F0020FF2D1A369022B04D940F2CD1187
:100C70005F4801F03FF9A369002B00F0AC805B4AAC
:100C8000926802F00C02082A00F0A780022B79D1AA
:100C9000E3693BB1B3F5800F04D04FF4EB715448D6
:100CA00001F028F9236A3F2B04D940F2D7115048AC
:100CB00001F020F9636A323BB3F5BF7F04D94FF4EA
:100CC000EC714B4801F016F9A36A022B0AD0042BF1
:100CD00008D0062B06D0082B04D040F2D911444886
:100CE00001F008F9E36A043B0B2B04D94FF4ED71D2
:100CF0003F4801F0FFF800223E4B1A60FFF7BEFBB1
:100D0000054604E0FFF7BAFB401B022867D8374BC3
:100D10001B6813F0007FF5D1E169236A1943636A08
:100D200047F6C07292FAA2F2B2FA82F293401943E5
:100D3000A36A5B085A1E4FF4403393FAA3F3B3FA45
:100D400083F302FA03F30B43E26A4FF0706191FA06
:100D5000A1F1B1FA81F18A401343244A5360012280
:100D6000244B1A60FFF78AFB044604E0FFF786FB7A
:100D7000001B022835D81D4B1B6813F0007FF5D0EF
:100D8000002031E000221B4B1A60FFF777FB04467E
:100D900004E0FFF773FB001B022824D8134B1B68E9
:100DA00013F0007FF5D100201EE001201CE003209D
:100DB0001AE0032018E0012016E0032014E00320CD
:100DC00012E0032010E003200EE003200CE00320DB
:100DD0000AE0032008E0002006E0012004E00320F0
:100DE00002E0032000E0032003B030BD00380240E1
:100DF000103000086000474270B504460D46036895
:100E0000013B0E2B04D94FF40E71834801F072F8A8
:100E10000F2D04D940F239217F4801F06BF87F4B48
:100E20001B6803F00F039D4208D9EBB27B4A137095
:100E3000136803F00F039D4240F0DB80236813F03A
:100E4000020F1DD0A368A3B1802B12D0902B10D01D
:100E5000A02B0ED0B02B0CD0C02B0AD0D02B08D09A
:100E6000E02B06D0F02B04D04FF414716A4801F047
:100E700041F86B498B6823F0F002A36813438B6041
:100E8000236813F0010F64D06368032B04D940F288
:100E90005721614801F02EF86268012A05D1604BA4
:100EA0001B6813F4003F0FD1A5E0931E012B05D85A
:100EB0005B4B1B6813F0007F06D19EE0584B1B680C
:100EC00013F0020F00F09B8055498B6823F0030359
:100ED00013438B60FFF7D2FA06466368012B0FD1EC
:100EE00007E0FFF7CBFA801B41F28833984200F20B
:100EF00088804B4B9B6803F00C03042BF1D128E056
:100F0000022B0ED106E0FFF7B9FA801B41F28833BD
:100F1000984278D8424B9B6803F00C03082BF2D11F
:100F200017E0032B10D13E4B9B68FFF7A7FA801BFD
:100F300041F288339842F6D967E0FFF79FFA801BA9
:100F400041F28833984262D8354B9B6813F00C0FFE
:100F5000F3D1324B1B6803F00F039D4207D2EAB274
:100F60002E4B1A701B6803F00F039D4251D123686A
:100F700013F0040F19D0E36883B1B3F5805F0DD08F
:100F8000B3F5A05F0AD0B3F5C05F07D0B3F5E05F5B
:100F900004D040F2B521204800F0ACFF20498B6816
:100FA00023F4E052E36813438B60236813F0080FC7
:100FB0001AD0236983B1B3F5805F0DD0B3F5A05F7C
:100FC0000AD0B3F5C05F07D0B3F5E05F04D04FF4AB
:100FD0002F71114800F08EFF114A936823F460438B
:100FE000216943EAC10393600F20FFF711FA002043
:100FF00070BD012070BD012070BD012070BD0120B9
:1010000070BD032070BD032070BD032070BD0320A0
:1010100070BD012070BD00BF10300008003C0240D0
:1010200000380240244B9B6803F00C03042B3FD094
:10103000082B01D02148704710B41F4B586800F0AE
:101040003F005B6813F4800F10D01D4BB3FBF0F032
:10105000194B5A6847F6C0710A4091FAA1F3B3FAE6
:1010600083F322FA03F303FB00F310E0134BB3FB0B
:10107000F0F0114B5A6847F6C07402EA040194FA82
:10108000A4F2B2FA82F221FA02F202FB00F30A4A57
:10109000506800F440324FF4403090FAA0F0B0FABB
:1010A00080F022FA00F001304000B3FBF0F001E0E4
:1010B0000348704710BC7047003802400024F40019
:1010C00000127A0008B5FFF7ADFF084B9B6803F0EC
:1010D000F002F02393FAA3F3B3FA83F322FA03F3B3
:1010E000034AD35CD840034B186008BD0038024067
:1010F000003000080C00002008B5FFF7E3FF084BA4
:101100009B6803F4E0524FF4E05393FAA3F3B3FA6D
:1011100083F322FA03F3034AD35CD84008BD00BF2F
:10112000003802400030000808B5FFF7CBFF084B3D
:101130009B6803F460424FF4604393FAA3F3B3FA5D
:1011400083F322FA03F3034AD35CD84008BD00BFFF
:101150000038024000300008E8B138B504460D46BA
:1011600090F82C3013F0FF0F04D1002380F82D30BD
:1011700001F0A6F9022384F82C30211D206800F02C
:10118000B3FC62682946206800F064FD012384F8FE
:101190002C30002038BD0120704700BF38B590F8D2
:1011A0002C30DBB2022B14D00D460446022380F80B
:1011B0002C30006800F0ECFD2B68022B04D10523D5
:1011C00084F82C30002038BD012384F82C30002016
:1011D00038BD022038BD00BF90F82C30DBB2022BA6
:1011E0000CD010B50446022380F82C30006800F0C3
:1011F0002DFE012384F82C30002010BD0220704702
:1012000090F83930DBB2212B2AD18368B3F5805FA7
:101210000FD1036A02681B88C3F308035360036994
:101220001BB9036A0233036209E0036A01330362F4
:1012300005E00268036A591C01621B785360C38C85
:10124000013B9BB2C3846BB90268D36823F080036F
:10125000D3600268D36843F04003D3600020704736
:1012600002207047002070472DE9F8430446426889
:10127000B14B9A4204D940F2DD61B04800F03AFE29
:10128000E3683BB1B3F5005F04D040F2DE61AB48E8
:1012900000F030FE236953B1B3F5806F07D0B3F58A
:1012A000C06F04D040F2DF61A44800F023FE636900
:1012B0004FF6F372134200D123B94FF4DC619F481B
:1012C00000F018FE21680B6923F44052E3681343D1
:1012D0000B612068C36823F4164222F00C02A16857
:1012E0002369194363691943E3690B431343C360DB
:1012F00021684B6923F44072A36913434B61E3698E
:10130000B3F5004F40F0BB80276803F1804303F53D
:1013100010439F4203D003F580639F4257D1FFF7EC
:1013200003FF00EB800000EB800065686D00B0FB00
:10133000F5F5834EA6FB05356D092D01FFF7F4FE8B
:1013400000EB800000EB800063685B00B0FBF3F90A
:10135000FFF7EAFE00EB800000EB800063685B00B3
:10136000B0FBF3F3A6FB03235B094FF0640808FB13
:101370001393DB003233A6FB03235B095B0003F40A
:10138000F8731D44FFF7D0FE00EB800000EB8000F7
:1013900063685B00B0FBF3F9FFF7C6FE00EB80006B
:1013A00000EB800063685B00B0FBF3F3A6FB032354
:1013B0005B0908FB13984FEAC80808F13208A6FB3E
:1013C0000836C6F342163544BD60BDE8F883FFF722
:1013D00093FE00EB800000EB800065686D00B0FBC1
:1013E000F5F5574EA6FB05356D092D01FFF784FE77
:1013F00000EB800000EB800063685B00B0FBF3F95A
:10140000FFF77AFE00EB800000EB800063685B0072
:10141000B0FBF3F3A6FB03235B094FF0640808FB62
:101420001393DB003233A6FB03235B095B0003F459
:10143000F8731D44FFF760FE00EB800000EB8000B6
:1014400063685B00B0FBF3F9FFF756FE00EB80002A
:1014500000EB800063685B00B0FBF3F3A6FB0323A3
:101460005B0908FB13984FEAC80808F13208A6FB8D
:101470000836C6F342163544BD60BDE8F8832668D9
:10148000304B9E4203D003F580639E425CD1FFF750
:101490004BFE00EB800000EB80006568AD00B0FB08
:1014A000F5F5274FA7FB05356D092D01FFF73CFE2C
:1014B00000EB800000EB800063689B00B0FBF3F85A
:1014C000FFF732FE00EB800000EB800063689B00BA
:1014D000B0FBF3F3A7FB03235B094FF0640909FB9F
:1014E00013831B013233A7FB03235B0903F0F003D3
:1014F0001D44FFF719FE00EB800000EB80006368DD
:101500009B00B0FBF3F8FFF70FFE00EB800000EB51
:10151000800063689B00B0FBF3F3A7FB03235B0928
:1015200009FB13831B013233A7FB0323C3F34313CC
:101530001D44B560BDE8F883A037A0004030000826
:101540001F85EB5100100140FFF7D6FD00EB800036
:1015500000EB80006568AD00B0FBF5F5254FA7FBFB
:1015600005356D092D01FFF7C7FD00EB800000EB8D
:10157000800063689B00B0FBF3F8FFF7BDFD00EB54
:10158000800000EB800063689B00B0FBF3F3A7FBD7
:1015900003235B094FF0640909FB13831B013233FA
:1015A000A7FB03235B0903F0F0031D44FFF7A4FD31
:1015B00000EB800000EB800063689B00B0FBF3F859
:1015C000FFF79AFD00EB800000EB800063689B0052
:1015D000B0FBF3F3A7FB03235B0909FB13831B0198
:1015E0003233A7FB0323C3F343131D44B560BDE8A7
:1015F000F88300BF1F85EB512DE9F04105460E46EB
:1016000090461C46FEF73AFF0746B8F1000F28D077
:1016100057E0B4F1FF3F24D024B1FEF72FFFC01BE9
:1016200084421ED22A68D36823F08003D3602A68DC
:10163000D36823F02003D3602A68D36823F480732F
:10164000D3602A68536923F001035361202385F88E
:10165000393085F83A30002385F838300320BDE86A
:10166000F0812B681B6836EA0303D2D10020BDE865
:10167000F081B4F1FF3F24D024B1FEF7FFFEC01B80
:1016800084421ED22A68D36823F08003D3602A687C
:10169000D36823F02003D3602A68D36823F48073CF
:1016A000D3602A68536923F001035361202385F82E
:1016B000393085F83A30002385F838300320BDE80A
:1016C000F0812B681B6836EA0303D2D00020BDE806
:1016D000F08100BF002800F08E8010B504468369B9
:1016E0001BB30368454A93420FD0A2F54C42934284
:1016F0000BD002F58062934207D002F54C42934230
:1017000003D0FB213E4800F0F5FBA36993B3B3F58A
:10171000807F2FD0B3F5007F2CD0B3F5407F29D048
:10172000FC21374800F0E6FB24E00368334A93428B
:1017300020D0A2F54C4293421CD002F58062934225
:1017400018D002F58062934214D002F58062934271
:1017500010D002F5444293420CD0A2F51C429342B1
:1017600008D002F58062934204D04FF4807124487F
:1017700000F0C0FBA3683BB1B3F5805F04D04FF429
:1017800081711F4800F0B6FBE3693BB1B3F5004F30
:1017900004D040F203111A4800F0ACFB94F8393041
:1017A00013F0FF0F05D1002384F83830204600F0F5
:1017B00011FF242384F839302268D36823F40053BE
:1017C000D3602046FFF750FD2268136923F490434D
:1017D00013612268536923F02A0353612268D36896
:1017E00043F40053D3600020E063202384F83930B1
:1017F00084F83A3010BD0120704700BF001001404E
:101800004030000870B51E4690F83930DBB2202B0E
:1018100049D104460D46002947D0002A47D090F808
:101820003830012B45D0012380F838300023C363C2
:10183000212380F839308284C28422E0013BE38492
:10184000A368B3F5805F11D1334600228021204682
:10185000FFF7D2FE78BB22682B88C3F308035360DE
:1018600023690BB902350CE001350AE0334600224A
:1018700080212046FFF7C0FEF8B923682A785A6015
:101880000135E38C002BD9D133460022402120467C
:10189000FFF7B2FE034690B9202284F839200022D7
:1018A00084F838200CE002230AE0012308E0012339
:1018B00006E0022304E0032302E0032300E0032305
:1018C000184670BD90F83A30DBB2202B23D121B3FB
:1018D0002AB390F83830012B23D0012380F8383018
:1018E00081628285C2850023C363222280F83A2068
:1018F0000168CA6842F48072CA6001684A6942F0AD
:1019000001024A6180F838300168CA6842F020025A
:10191000CA601846704702207047012070470120B6
:1019200070470220704700BF704700BF08B50168CC
:10193000CB6823F04003CB60202380F83930FFF7D9
:10194000F3FF002008BD00BF08B590F83A30DBB2C5
:10195000222B43D18368B3F5805F13D1826A036978
:1019600043B903685B68C3F308031380836A0233D7
:10197000836218E003685B68DBB21380836A01331B
:10198000836210E0036933B9836A5A1C8262026879
:1019900052681A7007E0826A531C836203685B68AE
:1019A00003F07F031370C38D013B9BB2C385BBB9AA
:1019B0000268D36823F02003D3600268D36823F45D
:1019C0008073D3600268536923F0010353612023BD
:1019D00080F83A3000F00AFD002008BD022008BD62
:1019E000002008BD704700BF10B584B004460368EE
:1019F0001968DA6811F0010F0DD002F4807252B14B
:101A0000002200921A6800925A680092009AC26BF3
:101A100042F00102C26319685A6902F0010211F032
:101A2000020F0BD052B1002201921A6801925A683B
:101A30000192019AE26B42F00402E26319685A696A
:101A400002F0010211F0040F0BD052B100220292F9
:101A50001A6802925A680292029AE26B42F00202FB
:101A6000E26319685A6902F0010211F0080F0BD005
:101A700052B1002203921A6803925A680392039AA1
:101A8000E26B42F00802E2631A68DB6803F02003AD
:101A900012F0200F03D013B12046FFF755FF236843
:101AA0001A68DB6803F0800312F0800F03D013B1D3
:101AB0002046FFF7A5FB23681A68DB6803F04003A4
:101AC00012F0400F03D013B12046FFF72FFFE36B56
:101AD0003BB1202384F8393084F83A302046FFF7B0
:101AE00081FF04B010BD00BF38B505460C46574B0A
:101AF000984204D04FF4AA61554800F0FBF92368DE
:101B0000012B04D940F25151514800F0F3F96368B8
:101B1000032B04D940F252514D4800F0EBF9A36871
:101B200043B1042B06D0082B04D040F2535148484F
:101B300000F0E0F9E36843B1102B06D0202B04D06D
:101B400040F25451424800F0D5F9236933B1402B9B
:101B500004D040F255513E4800F0CCF96369802B27
:101B60000AD0B3F5807F07D0B3F5C07F04D040F230
:101B70005651374800F0BEF9A3693BB1B3F5007F79
:101B800004D040F25751324800F0B4F9E36953B140
:101B9000B3F5006F07D0B3F5406F04D04FF4AB61DD
:101BA0002B4800F0A7F9236A3BB1B3F5805F04D05E
:101BB00040F25951264800F09DF9636A53B1B3F5DC
:101BC000005F07D0B3F5804F04D040F25A5120484F
:101BD00000F090F92368012B18D02B6823F4FF4103
:101BE00021F07F016268A3681A43E3681A432369FE
:101BF0001A4363691A43A3691A43E3691A43236AC0
:101C00001343626A13430B432B601DE0296821F4E0
:101C1000FF4323F07F03E169226A1143626A1143A3
:101C200019436B6823F4FF4020F07F006268A368CB
:101C30001A43E3681A4323691A4363691343A26989
:101C40001343034329606B60002038BD400100A0AE
:101C500070300008F8B505460C4616464A4B9842C7
:101C600004D040F2A351494800F044F92368013BF5
:101C70000F2B04D940F2A451444800F03BF96368AB
:101C8000013B0F2B04D940F2A551404800F032F936
:101C9000A368013B0F2B04D940F2A6513B4800F04A
:101CA00029F9E368013B0F2B04D940F2A7513748CB
:101CB00000F020F92369013B0F2B04D94FF4B561E3
:101CC000324800F017F96369013B0F2B04D940F249
:101CD000A9512E4800F00EF9A369013B0F2B04D93E
:101CE00040F2AA51294800F005F9012E04D940F22A
:101CF000AB51264800F0FEF8012E20D0AB6803F06F
:101D0000704E23685A1E6668013E42EA0617A068B4
:101D1000013847EA0026E168013946EA01302269C4
:101D2000013A40EA02416369013B41EA0352A36977
:101D3000013B42EA03634EEA0303AB6022E0EB6837
:101D400003F0704723685E1E6168013946EA01109E
:101D5000A268013A40EA02212369013B41EA0342B9
:101D6000A369013B42EA03633B43AA6802F0704067
:101D7000E268013A61690139090541EA0232024328
:101D8000EB60AA600020F8BD400100A070300008A0
:101D900070B582B004460E46154600230193294BC8
:101DA000984204D040F23761274800F0A3F8336826
:101DB000062B04D94FF4C761234800F09BF87368E1
:101DC000102B08D0082B06D0182B04D040F2396114
:101DD0001D4800F08FF8B368013B0F2B04D940F287
:101DE0003A61194800F086F8F368B3F5005F04D350
:101DF00040F23B61144800F07DF832687368134389
:101E0000B268013A43EA4213F26843EA422301937B
:101E1000019B2361FEF732FB064608E0B5F1FF3F68
:101E200005D055B1FEF72AFB801B854207D3A36975
:101E300013F0200FF2D1002002E0032000E0032085
:101E400002B070BD400100A07030000838B50446F3
:101E50000D460B4B984204D040F26261094800F0F5
:101E600049F8B5F5005F04D340F26361054800F01E
:101E700041F8616941EA45016161002038BD00BF58
:101E8000400100A070300008FEE700BF08B503481D
:101E900000F052F80120FFF7F7FF00BFA030000864
:101EA00008B50D4B1B6813B90C4A0B4B1A600A4B53
:101EB0001A68C31C23F00303134409498B4206D953
:101EC00000F0EAFB0C2303604FF0FF3008BD02492D
:101ED0000B60104608BD00BF84000020DC0100201C
:101EE00000FC022001230360014B0B60704700BF20
:101EF0000400002008B50A460146024800F004F834
:101F0000FFF7C4FFF43000080FB400B583B004AB92
:101F100053F8042B01938021064800F001FC0028AF
:101F200003DD0146034800F03BF803B05DF804EB25
:101F300004B070478C00002010B5044600F0BDFBD3
:101F40000146204600F02CF80121024800F028F854
:101F500010BD00BFE431000810B400221AE04FF0B9
:101F60006043D3F8803E13F0010F06D04FF060437A
:101F7000D3F8003E13F0010F01D110460DE04FF0F1
:101F800060431B68002BFAD004784FF060431C704C
:101F9000013201308A42E2D3084610BC704700BFCC
:101FA00008B5FFF7D9FF08BD08B500F081F8024B6E
:101FB000024A9A6008BD00BF00ED00E00000000882
:101FC000F8B504460D4617461E462648FFF79CFF07
:101FD00021682548FFF798FF61682448FFF794FFC0
:101FE000A1682348FFF790FFE1682248FFF78CFFC4
:101FF00021692148FFF788FF61692048FFF784FFC6
:10200000A1691F48FFF780FFE1691E48FFF77CFFC9
:102010001D48FFF779FF29461C48FFF775FF1C4C48
:10202000E16A1C48FFF770FF216B1B48FFF76CFF4C
:10203000E16B1A48FFF768FF15F0800F03D03946AF
:102040001748FFF761FF15F4004F03D031461548DC
:10205000FFF75AFF1448FFF757FF06991348FFF799
:1020600053FFF8BD4C3100085C3100086C310008AA
:102070007C3100088C3100089C310008AC3100082C
:10208000BC310008CC310008DC310008E831000820
:1020900000ED00E0F83100080832000818320008AE
:1020A0002832000838320008483200085032000850
:1020B0000C4B1A6842F001021A60002199601A68FC
:1020C00022F0847222F480321A60074A5A601A6839
:1020D00022F480221A60D9604FF00062034B9A60AC
:1020E000704700BF003802401030002400ED00E0CF
:1020F000224B9B6803F00C03042B07D0082B09D05C
:10210000002B2DD11E4A1F4B1A602CE01E4A1D4B7E
:102110001A6028E0194B5A685B6803F03F0312F419
:10212000800F09D0184AB2FBF3F2144B5B68C3F37B
:10213000881303FB02F208E0114AB2FBF3F30F4AE3
:102140005168C1F3881101FB03F20C4B5B68C3F3C8
:10215000014301335B00B2FBF3F30A4A136002E070
:10216000074A084B1A60054B9B68C3F30313074AE1
:10217000D15C044A1368CB401360704700380240BA
:102180000024F4000C00002000127A0094320008B1
:1021900030B595B000240194214B1A6C42F0805266
:1021A0001A641B6C03F080530193019B02941D4B36
:1021B0001A6842F440421A601B6803F440430293D9
:1021C000029B0123089309934FF480030F93082384
:1021D00010934FF4A87311930225129507231393BC
:1021E0000E9508A8FEF7E4FB0F23039304950594CE
:1021F0004FF4A05306934FF480530793052103A88F
:10220000FEF7FAFDFEF75EFF074BA3FB00308009E7
:10221000FEF7BEF90420FEF7D1F915B030BD00BFBE
:102220000038024000700040D34D621008B5FEF740
:1022300003F9FFF7ADFFFFF75BFF08BD2DE9F043A2
:1022400083B080460C460025019501260E600827C4
:102250004F608E60CD604FF48052FEF79FFF642088
:10226000FEF712F9022323606760A660E5604FF471
:10227000805221464046FEF791FF032323606760AA
:102280004FF00409C4F80890E5604FF480522146ED
:102290004046FEF783FF40F231230193C4F80090DB
:1022A0006760A660019BE3604FF480522146404680
:1022B000FEF774FF40F269514046FEF78DFF03B010
:1022C000BDE8F08308B5002000F0AEF8012000F072
:1022D000ABF808BD10B5EFF3108472B64FF480026E
:1022E00003494FF0504000F0DDF904B962B610BD6B
:1022F000000040D008B5FFF7E5FF3248324B0360DD
:102300004FF41653436000238360C360036183610D
:102310000C224261C361FFF7DDF900B1FEE72B4CEF
:102320002B4B23602B4902230B6007224A600425B4
:102330008D60CA600B614B618B6101236360002378
:10234000A360E56010222261402262614FF4C072F6
:10235000A261E3614FF44062226263624FF4005372
:10236000A3622046FEF7F8FE1B492046FFF766FFF2
:102370001A491B4B0B602A461248FFF7A3FA00B11B
:10238000FEE7FEF77BF8174E3060FFF7A3FFFEF77E
:1023900075F8154D28600B4C41F288330422314604
:1023A0002046FFF72FFA41F28833042229462046BF
:1023B000FFF728FA41F28830FEF766F8002000F0B7
:1023C0006FF8DEE7600100200010014020010020CE
:1023D000400100A0B4010020A0010020D401002091
:1023E00044332211540100205801002008B502682E
:1023F000094B9A420ED1012000F052F8074B1B689E
:1024000003F150539B0006490A681A6004220548EC
:10241000FFF758FA08BD00BF001001400C01002072
:10242000D40100206001002070B588B0044660B976
:1024300000230193174B1A6B42F040021A631B6B87
:1024400003F040030193019B0DE001280BD1002311
:102450000293104B1A6B42F040021A631B6B03F09D
:1024600040030293029B0C4B33F814600396012344
:102470000493059302230693084D03A955F82400FD
:10248000FEF7B8F80022314655F82400FEF766FA48
:1024900008B070BD00380240A432000810000020CF
:1024A00008B5044B33F81010034B53F82000FEF727
:1024B0006FFA08BDA432000810000020704700BF6A
:1024C00010B58CB0002200923B4B196B41F0020119
:1024D0001963196B01F00201009100990192196BC7
:1024E00041F004011963196B01F004010191019994
:1024F0000292196B41F008011963196B01F0080190
:10250000029102990392196B41F010011963196B42
:1025100001F01001039103990492196B41F020011D
:102520001963196B01F02001049104990592196B4C
:1025300041F040011963196B01F0400105910599C3
:102540000692996B41F0010199639B6B03F00103C3
:102550000693069B022308930A9309920C230B937C
:102560000CAC602344F8143D21461448FEF742F8B1
:102570000123079321461248FEF73CF84CF20373FF
:10258000079321460F48FEF735F84FF683730793FC
:1025900021460D48FEF72EF84FF63F0307932146DC
:1025A0000A48FEF727F848F23313079321460848F4
:1025B000FEF720F80CB010BD0038024000040240C5
:1025C00000080240000C02400010024000140240CB
:1025D0000018024070B588B0002400941E4B1A6B9E
:1025E00042F001021A631A6B02F001020092009A93
:1025F00001941A6B42F001021A631A6B02F0010295
:102600000192019A02945A6C42F010025A645B6C77
:1026100003F010030293029B4FF400730393022311
:10262000049305940693072607960C4D03A92846A4
:10263000FDF7E0FF4FF480630393079603A9284654
:10264000FDF7D8FF012221462520FDF749FF25206F
:10265000FDF788FF08B070BD00380240000002405E
:10266000704700BFFEE700BFFEE700BFFEE700BF08
:10267000FEE700BF704700BF704700BF704700BF54
:1026800008B5FDF7F3FE08BD08B50248FFF7ACF941
:1026900008BD00BF60010020014B1868704700BFF3
:1026A0007800002010B5431E0A44914204D011F86E
:1026B000014B03F8014FF8E710BD034613F8012B57
:1026C000002AFBD1181A0138704730B5141E054690
:1026D0009BB0184604DA8B232B604FF0FF301DE0CF
:1026E0004FF40273ADF80C3014BF04F1FF332346EE
:1026F000029305934FF6FF7300910491ADF80E30ED
:1027000002461E9B6946284600F072F8431CBCBF77
:102710008B232B6014B1009B00221A701BB030BDBC
:1027200007B5009313460A46014603480068FFF7C1
:10273000CCFF03B05DF804FB780000202DE9F047E2
:102740008E689E4282460C46914698463ED88A89BB
:1027500012F4906F3AD0256809696F1A65690223EF
:1027600005EB450595FBF3F57B1C43449D4238BFC3
:102770001D4653050FD5294600F07CFB064698B14F
:102780003A462169FFF78EFFA38923F4906343F053
:102790008003A38113E02A4600F0C0FB064670B90F
:1027A0002169504600F020FB0C23CAF80030A389B1
:1027B00043F04003A3814FF0FF30BDE8F08726616E
:1027C00065613E44ED1B2660A5604646464528BF30
:1027D000464632464946206800F0EAFAA3689B1B49
:1027E000A36023681E4426600020BDE8F087000037
:1027F0002DE9F04F9DB0804603938B891C060D4652
:1028000016460DD50B695BB9402100F033FB2860FB
:10281000286118B90C23C8F80030CDE040236B6163
:102820000023099320238DF82930DFF89CB1302351
:102830008DF82A3037463C4614F8013B1BB9B7EBFC
:10284000060910D003E0252BF9D02746F3E74B46C5
:10285000324629464046FFF771FF013000F0A7805D
:10286000099B4B4409933B78002B00F0A080002388
:102870004FF0FF3204930793059206938DF853307F
:102880001A930126052221784E4800F041FA671C70
:10289000049B38B14B4A801A06FA00F018430490A2
:1028A0003C46EFE7D90644BF20228DF853201A0793
:1028B00044BF2B228DF8532022782A2A03D0079A6E
:1028C00000210A200BE0039A111D12680391002ACF
:1028D00010DA524243F00200079204900BE02746C0
:1028E00001343B78303B092B03D800FB0232012135
:1028F000F5E701B107923B782E2B1ED17B782A2B6E
:102900000AD1039B1A1D1B680392002BB8BF4FF01E
:10291000FF330237059310E000230593781C194616
:102920000A24074601303A78303A092A03D804FBD2
:1029300001210123F5E703B10591032239782248EB
:1029400000F0E6F940B14023CBEB000003FA00F0C1
:10295000049B18430490013739781C488DF82810DF
:1029600006227E1C00F0D4F988B1194B33B9039BC1
:10297000073323F007030833039314E003AB0093FA
:102980002A46144B04A94046AFF3008007E003AB8E
:1029900000932A460F4B04A9404600F093F8B0F18B
:1029A000FF3F824603D0099B5344099342E7AB891A
:1029B0005B0601D4099801E04FF0FF301DB0BDE87F
:1029C000F08F00BFAA320008B0320008B43200080D
:1029D000000000003D2700082DE9F04791461F4602
:1029E0000A698B68DDF820809342B8BF1346C9F8A6
:1029F000003091F8432006460C4612B10133C9F865
:102A000000302368990642BFD9F800300233C9F874
:102A10000030256815F0060510D104F1190A07E009
:102A20000123524639463046C04701301AD001359D
:102A3000E368D9F800209B1A9D42F1DB94F84330FB
:102A40002268003318BF012392060FD5E1185A1CE3
:102A5000302081F84300224494F8451082F8431056
:102A6000023303E04FF0FF30BDE8F08704F143028A
:102A700039463046C0470130F4D02268D9F80050BA
:102A8000E36802F00602042A08BF5D1B2269A368FE
:102A90000CBF25EAE57500259342C4BF9B1AED18CB
:102AA0004FF000091A344D4509D00123224639461A
:102AB0003046C0470130D5D009F10109F3E70020C5
:102AC000BDE8F0872DE9F04317460A7E85B06E2AEF
:102AD000984606460C460C9B01F1430E00F0AE8072
:102AE00011D8632A22D009D8002A00F0BB80582AC6
:102AF00040F0CA8081F84520834955E0642A1ED001
:102B0000692A1CD0C0E0732A00F0B08009D86F2A6F
:102B10002ED0702A40F0B8800A6842F020020A6085
:102B20003EE0752A24D0782A3AD0ADE01A6801F147
:102B30004205111D1960136884F84230A8E021682D
:102B40001A6811F0800F02D0111D196008E011F011
:102B5000400F02F10401196002D0B2F9003000E028
:102B60001368002B3CDA2D225B4284F8432037E0C7
:102B700021681A6811F0800F02D0111D196007E05A
:102B800011F0400F02F10401196001D0138800E038
:102B90001368227E5C496F2A14BF0A2208221BE0B8
:102BA00078225A4984F845202268186812F0800F6C
:102BB00000F104051D6003D1550601D5038800E02E
:102BC0000368D00744BF42F0200222601BB922688C
:102BD00022F0200222601022002084F8430001E04D
:102BE00049490A226568A560002D08DB206820F0AD
:102BF000040020602BB9002D7DD175460CE0002B20
:102C000079D07546B3FBF2F002FB1033CB5C05F8CC
:102C1000013D03460028F5D1082A0BD12368DA07C5
:102C200008D5236962689A42DEBF302305F8013C6B
:102C300005F1FF35C5EB0E0323612EE008681A6825
:102C4000496910F0800F03D0101D1860136808E068
:102C500010F0400F02F104001860136801D01980D1
:102C600000E0196000232361754616E01A68111D03
:102C70001960156862680021284600F049F808B11B
:102C8000401B6060636804E004F1420584F8422060
:102C900001232361002384F84330CDF800803B46B4
:102CA00003AA21463046FFF797FE013002D14FF0CC
:102CB000FF3026E023692A4639463046C0470130B6
:102CC000F5D023689B0710D5002504F1190907E00A
:102CD00001234A4639463046C0470130E7D0013526
:102CE000E368039A9B1A9D42F2DBE068039B9842DB
:102CF000B8BF184605E00B7884F8423004F142056D
:102D00008AE705B0BDE8F083BB320008CC3200088A
:102D100001F0FF01102A2BDB10F0070F08D010F88C
:102D2000013B013A8B422DD010F0070F42B3F6D190
:102D3000F0B441EA012141EA014122F007047FF0A9
:102D400000070023F0E80256083C85EA010586EA00
:102D5000010685FA47F5A3FA87F586FA47F6A5FA3C
:102D600087F68EB9EED1F0BC01F0FF0102F0070248
:102D700032B110F8013B013A83EA010313B1F8D1F3
:102D80000020704701387047002D06BF35460338D4
:102D9000073815F0010F07D1013015F4807F02BF0D
:102DA000013015F4C03F0130F0BC0138704700BF5E
:102DB000884210B501EB020301D8421E0BE0984295
:102DC000FBD28118D21AD34204D013F8014D01F876
:102DD000014DF8E710BD994204D011F8014B02F8FB
:102DE000014FF8E710BD000030B500293ED051F882
:102DF000042C0B1F1E49002AB8BF9B180A680C46FA
:102E000012B95A600B6030BD9A420ED91968581831
:102E1000824204BF106852685A6004BF09181960E2
:102E2000236030BD994203D80A4651680029F9D180
:102E3000146815199D420AD11B682344D018814299
:102E4000136013D10868034413604B680DE002D986
:102E50000C23036030BD18681C18A14204BF0C6825
:102E60004968596004BF00191860536030BD00BF45
:102E70001401002070B5CD1C25F0030508350C2D7C
:102E800038BF0C25002D064603DA0C2333600020E2
:102E900070BDA942F9D81F4B1C681A462146A1B142
:102EA0000B685B1B0ED40B2B03D90B60CC18CD50D9
:102EB0001EE08C420DBF63684B686360136018BFEF
:102EC0000C4615E00C464968E9E7134C23681BB92A
:102ED000304600F049F820602946304600F044F8BA
:102EE000431CD2D0C41C24F00304A0420AD12560A4
:102EF00004F10B00231D20F00700C31A09D05A4229
:102F0000E25070BD211A304600F02EF80130EED1AB
:102F1000BBE770BD1401002010010020F8B5074682
:102F200015460E4621B91146BDE8F840FFF7A2BF8D
:102F30001AB9FFF759FF2846F8BD00F025F8854279
:102F40000ED929463846FFF795FF044650B1314661
:102F50002A46FFF7A7FB31463846FFF745FF01E059
:102F60003046F8BD2046F8BD38B5064C002305466E
:102F700008462360FEF794FF431C02D1236803B187
:102F80002B6038BD1C01002051F8040C0028BEBF86
:102F9000091851F8043CC018043870472E2E2F73BE
:102FA000797374656D2F7372632F73746D3332662A
:102FB000342D68616C2F73746D3332663478785FAA
:102FC00068616C5F636F727465782E630000000047
:102FD0002E2E2F73797374656D2F7372632F737434
:102FE0006D333266342D68616C2F73746D333266C5
:102FF0003478785F68616C5F6770696F2E6300007A
:10300000000000000102030401020304060708098E
:103010002E2E2F73797374656D2F7372632F7374F3
:103020006D333266342D68616C2F73746D33326684
:103030003478785F68616C5F7263632E63000000B0
:103040002E2E2F73797374656D2F7372632F7374C3
:103050006D333266342D68616C2F73746D33326654
:103060003478785F68616C5F756172742E630000FC
:103070002E2E2F73797374656D2F7372632F737493
:103080006D333266342D68616C2F73746D33326624
:103090003478785F6C6C5F666D632E6300000000AF
:1030A00061626F727428292C2065786974696E6773
:1030B0002E2E2E002C2066756E6374696F6E3A207A
:1030C00000000000617373657274696F6E202225C1
:1030D0007322206661696C65643A2066696C6520BC
:1030E000222573222C206C696E65202564257325AA
:1030F000730A00006173736572745F706172616D51
:103100002829206661696C65643A2066696C6520CF
:10311000222573222C206C696E652025640A00002C
:103120006D61696E28617267633D25642C20617250
:1031300067763D5B000000002C20000022257322F2
:10314000000000005D293B0A000000005374616329
:103150006B206672616D653A0A00000020523020D3
:103160003D2020253038580A000000002052312030
:103170003D2020253038580A00000000205232201F
:103180003D2020253038580A00000000205233200E
:103190003D2020253038580A0000000020523132EE
:1031A000203D20253038580A00000000204C5220D5
:1031B0003D2020253038580A0000000020504320D0
:1031C0003D2020253038580A00000000205053527E
:1031D000203D20253038580A000000004653522F69
:1031E0004641523A0A0000002043465352203D20F7
:1031F00020253038580A00002048465352203D20F0
:1032000020253038580A00002044465352203D20E3
:1032100020253038580A00002041465352203D20D6
:1032200020253038580A0000204D4D464152203D9F
:1032300020253038580A00002042464152203D20C7
:1032400020253038580A00004D6973630A000000D9
:10325000204C522F4558435F52455455524E3D2005
:10326000253038580A0000005B4861726446617579
:103270006C745D0A000000005B4275734661756CFA
:10328000745D0A005B55736167654661756C745DBA
:103290000A0000000000000000000000010203041A
:1032A00006070809002000404300232D302B200092
:1032B000686C4C00656667454647003031323334F0
:1032C0003536373839414243444546003031323390
:0D32D0003435363738396162636465660055
:1032E0007856341288000020000000000024F4000A
:1032F000001802400018024000000000000000001A
:1033000000000000000000000000000000000000BD
:103310000000000000000000A832000800000000CB
:10332000000000000000000000000000000000009D
:10333000000000000000000000000000000000008D
:10334000000000000000000000000000000000007D
:1033500000000000000000001800002032547698A1
:04000005080001AD41
:00000001FF
